{
  "_format": "hh-sol-artifact-1",
  "contractName": "Lottery",
  "sourceName": "contracts/Lottery.sol",
  "abi": [
    {
      "inputs": [
        {
          "internalType": "address",
          "name": "vrfCoordinatorV2",
          "type": "address"
        },
        {
          "internalType": "uint256",
          "name": "entryFees",
          "type": "uint256"
        },
        {
          "internalType": "bytes32",
          "name": "gaslane",
          "type": "bytes32"
        },
        {
          "internalType": "uint64",
          "name": "subscriptionID",
          "type": "uint64"
        },
        {
          "internalType": "uint32",
          "name": "callbackgaslimit",
          "type": "uint32"
        },
        {
          "internalType": "uint256",
          "name": "s_interval",
          "type": "uint256"
        }
      ],
      "stateMutability": "nonpayable",
      "type": "constructor"
    },
    {
      "inputs": [],
      "name": "Lottery_NotEnoughEth",
      "type": "error"
    },
    {
      "inputs": [],
      "name": "Lottery_NotOpen",
      "type": "error"
    },
    {
      "inputs": [],
      "name": "Lottery_transactionFailed",
      "type": "error"
    },
    {
      "inputs": [
        {
          "internalType": "uint256",
          "name": "currentBalance",
          "type": "uint256"
        },
        {
          "internalType": "uint256",
          "name": "numPlayers",
          "type": "uint256"
        },
        {
          "internalType": "uint256",
          "name": "LotteryState",
          "type": "uint256"
        }
      ],
      "name": "Lottery_upkeepNotNeeded",
      "type": "error"
    },
    {
      "inputs": [
        {
          "internalType": "address",
          "name": "have",
          "type": "address"
        },
        {
          "internalType": "address",
          "name": "want",
          "type": "address"
        }
      ],
      "name": "OnlyCoordinatorCanFulfill",
      "type": "error"
    },
    {
      "anonymous": false,
      "inputs": [
        {
          "indexed": true,
          "internalType": "address",
          "name": "player",
          "type": "address"
        }
      ],
      "name": "LotteryEnter",
      "type": "event"
    },
    {
      "anonymous": false,
      "inputs": [
        {
          "indexed": true,
          "internalType": "uint256",
          "name": "requestId",
          "type": "uint256"
        }
      ],
      "name": "RequestedLotteryWinner",
      "type": "event"
    },
    {
      "anonymous": false,
      "inputs": [
        {
          "indexed": true,
          "internalType": "address",
          "name": "winner",
          "type": "address"
        }
      ],
      "name": "winnerPicked",
      "type": "event"
    },
    {
      "inputs": [
        {
          "internalType": "bytes",
          "name": "",
          "type": "bytes"
        }
      ],
      "name": "checkUpkeep",
      "outputs": [
        {
          "internalType": "bool",
          "name": "upkeepNeeded",
          "type": "bool"
        },
        {
          "internalType": "bytes",
          "name": "",
          "type": "bytes"
        }
      ],
      "stateMutability": "view",
      "type": "function"
    },
    {
      "inputs": [],
      "name": "enterInLottery",
      "outputs": [],
      "stateMutability": "payable",
      "type": "function"
    },
    {
      "inputs": [],
      "name": "getEntryFee",
      "outputs": [
        {
          "internalType": "uint256",
          "name": "",
          "type": "uint256"
        }
      ],
      "stateMutability": "view",
      "type": "function"
    },
    {
      "inputs": [],
      "name": "getLotteryState",
      "outputs": [
        {
          "internalType": "enum Lottery.LotteryState",
          "name": "",
          "type": "uint8"
        }
      ],
      "stateMutability": "view",
      "type": "function"
    },
    {
      "inputs": [],
      "name": "getNumWords",
      "outputs": [
        {
          "internalType": "uint256",
          "name": "",
          "type": "uint256"
        }
      ],
      "stateMutability": "pure",
      "type": "function"
    },
    {
      "inputs": [
        {
          "internalType": "uint256",
          "name": "index",
          "type": "uint256"
        }
      ],
      "name": "getPlayer",
      "outputs": [
        {
          "internalType": "address",
          "name": "",
          "type": "address"
        }
      ],
      "stateMutability": "view",
      "type": "function"
    },
    {
      "inputs": [],
      "name": "getRecentWinner",
      "outputs": [
        {
          "internalType": "address",
          "name": "",
          "type": "address"
        }
      ],
      "stateMutability": "view",
      "type": "function"
    },
    {
      "inputs": [
        {
          "internalType": "bytes",
          "name": "",
          "type": "bytes"
        }
      ],
      "name": "performUpkeep",
      "outputs": [],
      "stateMutability": "nonpayable",
      "type": "function"
    },
    {
      "inputs": [
        {
          "internalType": "uint256",
          "name": "requestId",
          "type": "uint256"
        },
        {
          "internalType": "uint256[]",
          "name": "randomWords",
          "type": "uint256[]"
        }
      ],
      "name": "rawFulfillRandomWords",
      "outputs": [],
      "stateMutability": "nonpayable",
      "type": "function"
    }
  ],
  "bytecode": "0x610180604052600163ffffffff166101409063ffffffff168152503480156200002757600080fd5b50604051620017683803806200176883398181016040528101906200004d9190620002a9565b858073ffffffffffffffffffffffffffffffffffffffff1660808173ffffffffffffffffffffffffffffffffffffffff1681525050508460a081815250508573ffffffffffffffffffffffffffffffffffffffff1660c08173ffffffffffffffffffffffffffffffffffffffff16815250508360e081815250508267ffffffffffffffff166101008167ffffffffffffffff16815250508163ffffffff166101208163ffffffff16815250506000600160146101000a81548160ff0219169083600181111562000122576200012162000345565b5b02179055504260028190555080610160818152505050505050505062000374565b600080fd5b600073ffffffffffffffffffffffffffffffffffffffff82169050919050565b6000620001758262000148565b9050919050565b620001878162000168565b81146200019357600080fd5b50565b600081519050620001a7816200017c565b92915050565b6000819050919050565b620001c281620001ad565b8114620001ce57600080fd5b50565b600081519050620001e281620001b7565b92915050565b6000819050919050565b620001fd81620001e8565b81146200020957600080fd5b50565b6000815190506200021d81620001f2565b92915050565b600067ffffffffffffffff82169050919050565b620002428162000223565b81146200024e57600080fd5b50565b600081519050620002628162000237565b92915050565b600063ffffffff82169050919050565b620002838162000268565b81146200028f57600080fd5b50565b600081519050620002a38162000278565b92915050565b60008060008060008060c08789031215620002c957620002c862000143565b5b6000620002d989828a0162000196565b9650506020620002ec89828a01620001d1565b9550506040620002ff89828a016200020c565b94505060606200031289828a0162000251565b93505060806200032589828a0162000292565b92505060a06200033889828a01620001d1565b9150509295509295509295565b7f4e487b7100000000000000000000000000000000000000000000000000000000600052602160045260246000fd5b60805160a05160c05160e05161010051610120516101405161016051611379620003ef60003960006106fe015260008181610595015261067a015260006105740152600061055101526000610530015260006104f40152600081816102d001526107ee015260008181610210015261026401526113796000f3fe6080604052600436106100865760003560e01c806353a2c19a1161005957806353a2c19a146101125780636b68c03c1461013d5780636e04ff0d14610168578063e55ae4e8146101a6578063e586a4f0146101e357610086565b80631fe543e31461008b57806333592fef146100b45780634585e33b146100be578063473f1ddc146100e7575b600080fd5b34801561009757600080fd5b506100b260048036038101906100ad9190610c8d565b61020e565b005b6100bc6102ce565b005b3480156100ca57600080fd5b506100e560048036038101906100e09190610d44565b61043d565b005b3480156100f357600080fd5b506100fc61064c565b6040516101099190610dd2565b60405180910390f35b34801561011e57600080fd5b50610127610676565b6040516101349190610dfc565b60405180910390f35b34801561014957600080fd5b506101526106a4565b60405161015f9190610e8e565b60405180910390f35b34801561017457600080fd5b5061018f600480360381019061018a9190610f5e565b6106bb565b60405161019d929190611041565b60405180910390f35b3480156101b257600080fd5b506101cd60048036038101906101c89190611071565b6107a3565b6040516101da9190610dd2565b60405180910390f35b3480156101ef57600080fd5b506101f86107ea565b6040516102059190610dfc565b60405180910390f35b7f000000000000000000000000000000000000000000000000000000000000000073ffffffffffffffffffffffffffffffffffffffff163373ffffffffffffffffffffffffffffffffffffffff16146102c057337f00000000000000000000000000000000000000000000000000000000000000006040517f1cf993f40000000000000000000000000000000000000000000000000000000081526004016102b792919061109e565b60405180910390fd5b6102ca8282610812565b5050565b7f0000000000000000000000000000000000000000000000000000000000000000341015610328576040517f0178311000000000000000000000000000000000000000000000000000000000815260040160405180910390fd5b6000600181111561033c5761033b610e17565b5b600160149054906101000a900460ff16600181111561035e5761035d610e17565b5b14610395576040517f732acd4a00000000000000000000000000000000000000000000000000000000815260040160405180910390fd5b6000339080600181540180825580915050600190039060005260206000200160009091909190916101000a81548173ffffffffffffffffffffffffffffffffffffffff021916908373ffffffffffffffffffffffffffffffffffffffff1602179055503373ffffffffffffffffffffffffffffffffffffffff167f1d64fb5ba9f2548c5b98468d58f25b87b9e866afee0122e92d9fe722bf85076c60405160405180910390a2565b6000610457604051806020016040528060008152506106bb565b509050806104c65747600080549050600160149054906101000a900460ff16600181111561048857610487610e17565b5b6040517fa5a3fe4b0000000000000000000000000000000000000000000000000000000081526004016104bd939291906110c7565b60405180910390fd5b60018060146101000a81548160ff021916908360018111156104eb576104ea610e17565b5b021790555060007f000000000000000000000000000000000000000000000000000000000000000073ffffffffffffffffffffffffffffffffffffffff16635d3b1d307f00000000000000000000000000000000000000000000000000000000000000007f000000000000000000000000000000000000000000000000000000000000000060037f00000000000000000000000000000000000000000000000000000000000000007f00000000000000000000000000000000000000000000000000000000000000006040518663ffffffff1660e01b81526004016105d4959493929190611176565b6020604051808303816000875af11580156105f3573d6000803e3d6000fd5b505050506040513d601f19601f8201168201806040525081019061061791906111de565b9050807febf56642252004c18a776f30d528e7a0ce8c5db14b6596fb6550f630c8a24c6c60405160405180910390a250505050565b6000600160009054906101000a900473ffffffffffffffffffffffffffffffffffffffff16905090565b60007f000000000000000000000000000000000000000000000000000000000000000063ffffffff16905090565b6000600160149054906101000a900460ff16905090565b600060606000600160149054906101000a900460ff1660018111156106e3576106e2610e17565b5b600060018111156106f7576106f6610e17565b5b14905060007f00000000000000000000000000000000000000000000000000000000000000006002544261072b919061123a565b1190506000806000805490501190506000804711905083801561074b5750825b80156107545750815b801561075d5750805b9550856040518060400160405280600381526020017f30583000000000000000000000000000000000000000000000000000000000008152509550955050505050915091565b60008082815481106107b8576107b761126e565b5b9060005260206000200160009054906101000a900473ffffffffffffffffffffffffffffffffffffffff169050919050565b60007f0000000000000000000000000000000000000000000000000000000000000000905090565b600080805490508260008151811061082d5761082c61126e565b5b602002602001015161083f91906112cc565b905060008082815481106108565761085561126e565b5b9060005260206000200160009054906101000a900473ffffffffffffffffffffffffffffffffffffffff16905080600160006101000a81548173ffffffffffffffffffffffffffffffffffffffff021916908373ffffffffffffffffffffffffffffffffffffffff1602179055506000600160146101000a81548160ff021916908360018111156108ea576108e9610e17565b5b0217905550600067ffffffffffffffff81111561090a57610909610b4a565b5b6040519080825280602002602001820160405280156109385781602001602082028036833780820191505090505b506000908051906020019061094e929190610a43565b504260028190555060008173ffffffffffffffffffffffffffffffffffffffff164760405161097c9061132e565b60006040518083038185875af1925050503d80600081146109b9576040519150601f19603f3d011682016040523d82523d6000602084013e6109be565b606091505b50509050806109f9576040517fe649b36700000000000000000000000000000000000000000000000000000000815260040160405180910390fd5b8173ffffffffffffffffffffffffffffffffffffffff167f794919b0f484b8e90b1b817ac7f880f846fbd8a9813dee2a378e820db094e3d160405160405180910390a25050505050565b828054828255906000526020600020908101928215610abc579160200282015b82811115610abb5782518260006101000a81548173ffffffffffffffffffffffffffffffffffffffff021916908373ffffffffffffffffffffffffffffffffffffffff16021790555091602001919060010190610a63565b5b509050610ac99190610acd565b5090565b5b80821115610ae6576000816000905550600101610ace565b5090565b6000604051905090565b600080fd5b600080fd5b6000819050919050565b610b1181610afe565b8114610b1c57600080fd5b50565b600081359050610b2e81610b08565b92915050565b600080fd5b6000601f19601f8301169050919050565b7f4e487b7100000000000000000000000000000000000000000000000000000000600052604160045260246000fd5b610b8282610b39565b810181811067ffffffffffffffff82111715610ba157610ba0610b4a565b5b80604052505050565b6000610bb4610aea565b9050610bc08282610b79565b919050565b600067ffffffffffffffff821115610be057610bdf610b4a565b5b602082029050602081019050919050565b600080fd5b6000610c09610c0484610bc5565b610baa565b90508083825260208201905060208402830185811115610c2c57610c2b610bf1565b5b835b81811015610c555780610c418882610b1f565b845260208401935050602081019050610c2e565b5050509392505050565b600082601f830112610c7457610c73610b34565b5b8135610c84848260208601610bf6565b91505092915050565b60008060408385031215610ca457610ca3610af4565b5b6000610cb285828601610b1f565b925050602083013567ffffffffffffffff811115610cd357610cd2610af9565b5b610cdf85828601610c5f565b9150509250929050565b600080fd5b60008083601f840112610d0457610d03610b34565b5b8235905067ffffffffffffffff811115610d2157610d20610ce9565b5b602083019150836001820283011115610d3d57610d3c610bf1565b5b9250929050565b60008060208385031215610d5b57610d5a610af4565b5b600083013567ffffffffffffffff811115610d7957610d78610af9565b5b610d8585828601610cee565b92509250509250929050565b600073ffffffffffffffffffffffffffffffffffffffff82169050919050565b6000610dbc82610d91565b9050919050565b610dcc81610db1565b82525050565b6000602082019050610de76000830184610dc3565b92915050565b610df681610afe565b82525050565b6000602082019050610e116000830184610ded565b92915050565b7f4e487b7100000000000000000000000000000000000000000000000000000000600052602160045260246000fd5b60028110610e5757610e56610e17565b5b50565b6000819050610e6882610e46565b919050565b6000610e7882610e5a565b9050919050565b610e8881610e6d565b82525050565b6000602082019050610ea36000830184610e7f565b92915050565b600080fd5b600067ffffffffffffffff821115610ec957610ec8610b4a565b5b610ed282610b39565b9050602081019050919050565b82818337600083830152505050565b6000610f01610efc84610eae565b610baa565b905082815260208101848484011115610f1d57610f1c610ea9565b5b610f28848285610edf565b509392505050565b600082601f830112610f4557610f44610b34565b5b8135610f55848260208601610eee565b91505092915050565b600060208284031215610f7457610f73610af4565b5b600082013567ffffffffffffffff811115610f9257610f91610af9565b5b610f9e84828501610f30565b91505092915050565b60008115159050919050565b610fbc81610fa7565b82525050565b600081519050919050565b600082825260208201905092915050565b60005b83811015610ffc578082015181840152602081019050610fe1565b60008484015250505050565b600061101382610fc2565b61101d8185610fcd565b935061102d818560208601610fde565b61103681610b39565b840191505092915050565b60006040820190506110566000830185610fb3565b81810360208301526110688184611008565b90509392505050565b60006020828403121561108757611086610af4565b5b600061109584828501610b1f565b91505092915050565b60006040820190506110b36000830185610dc3565b6110c06020830184610dc3565b9392505050565b60006060820190506110dc6000830186610ded565b6110e96020830185610ded565b6110f66040830184610ded565b949350505050565b6000819050919050565b611111816110fe565b82525050565b600067ffffffffffffffff82169050919050565b61113481611117565b82525050565b600061ffff82169050919050565b6111518161113a565b82525050565b600063ffffffff82169050919050565b61117081611157565b82525050565b600060a08201905061118b6000830188611108565b611198602083018761112b565b6111a56040830186611148565b6111b26060830185611167565b6111bf6080830184611167565b9695505050505050565b6000815190506111d881610b08565b92915050565b6000602082840312156111f4576111f3610af4565b5b6000611202848285016111c9565b91505092915050565b7f4e487b7100000000000000000000000000000000000000000000000000000000600052601160045260246000fd5b600061124582610afe565b915061125083610afe565b92508282039050818111156112685761126761120b565b5b92915050565b7f4e487b7100000000000000000000000000000000000000000000000000000000600052603260045260246000fd5b7f4e487b7100000000000000000000000000000000000000000000000000000000600052601260045260246000fd5b60006112d782610afe565b91506112e283610afe565b9250826112f2576112f161129d565b5b828206905092915050565b600081905092915050565b50565b60006113186000836112fd565b915061132382611308565b600082019050919050565b60006113398261130b565b915081905091905056fea264697066735822122068c33ee1620a60d5c3482c0becdbe9ff8d6b14fe892e117887a40ac82270d97564736f6c63430008120033",
  "linkReferences": {},
  "deployedLinkReferences": {}
}