{
  "_format": "hh-sol-artifact-1",
  "contractName": "Lottery",
  "sourceName": "contracts/Lottery.sol",
  "abi": [
    {
      "inputs": [
        {
          "internalType": "address",
          "name": "vrfCoordinatorV2",
          "type": "address"
        },
        {
          "internalType": "uint256",
          "name": "entryFees",
          "type": "uint256"
        },
        {
          "internalType": "bytes32",
          "name": "gaslane",
          "type": "bytes32"
        },
        {
          "internalType": "uint64",
          "name": "subscriptionID",
          "type": "uint64"
        },
        {
          "internalType": "uint32",
          "name": "callbackgaslimit",
          "type": "uint32"
        },
        {
          "internalType": "uint256",
          "name": "s_interval",
          "type": "uint256"
        }
      ],
      "stateMutability": "nonpayable",
      "type": "constructor"
    },
    {
      "inputs": [],
      "name": "Lottery_NotEnoughEth",
      "type": "error"
    },
    {
      "inputs": [],
      "name": "Lottery_NotOpen",
      "type": "error"
    },
    {
      "inputs": [],
      "name": "Lottery_transactionFailed",
      "type": "error"
    },
    {
      "inputs": [
        {
          "internalType": "uint256",
          "name": "currentBalance",
          "type": "uint256"
        },
        {
          "internalType": "uint256",
          "name": "numPlayers",
          "type": "uint256"
        },
        {
          "internalType": "uint256",
          "name": "LotteryState",
          "type": "uint256"
        }
      ],
      "name": "Lottery_upkeepNotNeeded",
      "type": "error"
    },
    {
      "inputs": [
        {
          "internalType": "address",
          "name": "have",
          "type": "address"
        },
        {
          "internalType": "address",
          "name": "want",
          "type": "address"
        }
      ],
      "name": "OnlyCoordinatorCanFulfill",
      "type": "error"
    },
    {
      "anonymous": false,
      "inputs": [
        {
          "indexed": true,
          "internalType": "address",
          "name": "player",
          "type": "address"
        }
      ],
      "name": "LotteryEnter",
      "type": "event"
    },
    {
      "anonymous": false,
      "inputs": [
        {
          "indexed": true,
          "internalType": "uint256",
          "name": "requestId",
          "type": "uint256"
        }
      ],
      "name": "RequestedLotteryWinner",
      "type": "event"
    },
    {
      "anonymous": false,
      "inputs": [
        {
          "indexed": true,
          "internalType": "address",
          "name": "winner",
          "type": "address"
        }
      ],
      "name": "winnerPicked",
      "type": "event"
    },
    {
      "inputs": [
        {
          "internalType": "bytes",
          "name": "",
          "type": "bytes"
        }
      ],
      "name": "checkUpkeep",
      "outputs": [
        {
          "internalType": "bool",
          "name": "upkeepNeeded",
          "type": "bool"
        },
        {
          "internalType": "bytes",
          "name": "",
          "type": "bytes"
        }
      ],
      "stateMutability": "view",
      "type": "function"
    },
    {
      "inputs": [],
      "name": "enterInLottery",
      "outputs": [],
      "stateMutability": "payable",
      "type": "function"
    },
    {
      "inputs": [],
      "name": "getEntryFee",
      "outputs": [
        {
          "internalType": "uint256",
          "name": "",
          "type": "uint256"
        }
      ],
      "stateMutability": "view",
      "type": "function"
    },
    {
      "inputs": [],
      "name": "getInterval",
      "outputs": [
        {
          "internalType": "uint256",
          "name": "",
          "type": "uint256"
        }
      ],
      "stateMutability": "view",
      "type": "function"
    },
    {
      "inputs": [],
      "name": "getLatestTimeStamp",
      "outputs": [
        {
          "internalType": "uint256",
          "name": "",
          "type": "uint256"
        }
      ],
      "stateMutability": "view",
      "type": "function"
    },
    {
      "inputs": [],
      "name": "getLotteryState",
      "outputs": [
        {
          "internalType": "enum Lottery.LotteryState",
          "name": "",
          "type": "uint8"
        }
      ],
      "stateMutability": "view",
      "type": "function"
    },
    {
      "inputs": [],
      "name": "getNumWords",
      "outputs": [
        {
          "internalType": "uint256",
          "name": "",
          "type": "uint256"
        }
      ],
      "stateMutability": "pure",
      "type": "function"
    },
    {
      "inputs": [],
      "name": "getNumberOfPlayers",
      "outputs": [
        {
          "internalType": "uint256",
          "name": "",
          "type": "uint256"
        }
      ],
      "stateMutability": "view",
      "type": "function"
    },
    {
      "inputs": [
        {
          "internalType": "uint256",
          "name": "index",
          "type": "uint256"
        }
      ],
      "name": "getPlayer",
      "outputs": [
        {
          "internalType": "address",
          "name": "",
          "type": "address"
        }
      ],
      "stateMutability": "view",
      "type": "function"
    },
    {
      "inputs": [],
      "name": "getRecentWinner",
      "outputs": [
        {
          "internalType": "address",
          "name": "",
          "type": "address"
        }
      ],
      "stateMutability": "view",
      "type": "function"
    },
    {
      "inputs": [],
      "name": "getRequestConfirmations",
      "outputs": [
        {
          "internalType": "uint256",
          "name": "",
          "type": "uint256"
        }
      ],
      "stateMutability": "pure",
      "type": "function"
    },
    {
      "inputs": [
        {
          "internalType": "bytes",
          "name": "",
          "type": "bytes"
        }
      ],
      "name": "performUpkeep",
      "outputs": [],
      "stateMutability": "nonpayable",
      "type": "function"
    },
    {
      "inputs": [
        {
          "internalType": "uint256",
          "name": "requestId",
          "type": "uint256"
        },
        {
          "internalType": "uint256[]",
          "name": "randomWords",
          "type": "uint256[]"
        }
      ],
      "name": "rawFulfillRandomWords",
      "outputs": [],
      "stateMutability": "nonpayable",
      "type": "function"
    }
  ],
  "bytecode": "0x610180604052600163ffffffff166101409063ffffffff168152503480156200002757600080fd5b50604051620018a2380380620018a283398181016040528101906200004d9190620002a9565b858073ffffffffffffffffffffffffffffffffffffffff1660808173ffffffffffffffffffffffffffffffffffffffff1681525050508460a081815250508573ffffffffffffffffffffffffffffffffffffffff1660c08173ffffffffffffffffffffffffffffffffffffffff16815250508360e081815250508267ffffffffffffffff166101008167ffffffffffffffff16815250508163ffffffff166101208163ffffffff16815250506000600160146101000a81548160ff0219169083600181111562000122576200012162000345565b5b02179055504260028190555080610160818152505050505050505062000374565b600080fd5b600073ffffffffffffffffffffffffffffffffffffffff82169050919050565b6000620001758262000148565b9050919050565b620001878162000168565b81146200019357600080fd5b50565b600081519050620001a7816200017c565b92915050565b6000819050919050565b620001c281620001ad565b8114620001ce57600080fd5b50565b600081519050620001e281620001b7565b92915050565b6000819050919050565b620001fd81620001e8565b81146200020957600080fd5b50565b6000815190506200021d81620001f2565b92915050565b600067ffffffffffffffff82169050919050565b620002428162000223565b81146200024e57600080fd5b50565b600081519050620002628162000237565b92915050565b600063ffffffff82169050919050565b620002838162000268565b81146200028f57600080fd5b50565b600081519050620002a38162000278565b92915050565b60008060008060008060c08789031215620002c957620002c862000143565b5b6000620002d989828a0162000196565b9650506020620002ec89828a01620001d1565b9550506040620002ff89828a016200020c565b94505060606200031289828a0162000251565b93505060806200032589828a0162000292565b92505060a06200033889828a01620001d1565b9150509295509295509295565b7f4e487b7100000000000000000000000000000000000000000000000000000000600052602160045260246000fd5b60805160a05160c05160e051610100516101205161014051610160516114ac620003f6600039600081816107fd01526108a6015260008181610687015261076c015260006106660152600061064301526000610622015260006105e60152600081816103c201526109150152600081816102f8015261034c01526114ac6000f3fe6080604052600436106100c25760003560e01c80635f1b0fd81161007f57806391ad27b41161005957806391ad27b414610238578063e55ae4e814610263578063e586a4f0146102a0578063fd6673f5146102cb576100c2565b80635f1b0fd8146101a45780636b68c03c146101cf5780636e04ff0d146101fa576100c2565b80631fe543e3146100c7578063320229eb146100f057806333592fef1461011b5780634585e33b14610125578063473f1ddc1461014e57806353a2c19a14610179575b600080fd5b3480156100d357600080fd5b506100ee60048036038101906100e99190610dc0565b6102f6565b005b3480156100fc57600080fd5b506101056103b6565b6040516101129190610e2b565b60405180910390f35b6101236103c0565b005b34801561013157600080fd5b5061014c60048036038101906101479190610ea1565b61052f565b005b34801561015a57600080fd5b5061016361073e565b6040516101709190610f2f565b60405180910390f35b34801561018557600080fd5b5061018e610768565b60405161019b9190610e2b565b60405180910390f35b3480156101b057600080fd5b506101b9610796565b6040516101c69190610e2b565b60405180910390f35b3480156101db57600080fd5b506101e46107a3565b6040516101f19190610fc1565b60405180910390f35b34801561020657600080fd5b50610221600480360381019061021c9190611091565b6107ba565b60405161022f929190611174565b60405180910390f35b34801561024457600080fd5b5061024d6108a2565b60405161025a9190610e2b565b60405180910390f35b34801561026f57600080fd5b5061028a600480360381019061028591906111a4565b6108ca565b6040516102979190610f2f565b60405180910390f35b3480156102ac57600080fd5b506102b5610911565b6040516102c29190610e2b565b60405180910390f35b3480156102d757600080fd5b506102e0610939565b6040516102ed9190610e2b565b60405180910390f35b7f000000000000000000000000000000000000000000000000000000000000000073ffffffffffffffffffffffffffffffffffffffff163373ffffffffffffffffffffffffffffffffffffffff16146103a857337f00000000000000000000000000000000000000000000000000000000000000006040517f1cf993f400000000000000000000000000000000000000000000000000000000815260040161039f9291906111d1565b60405180910390fd5b6103b28282610945565b5050565b6000600254905090565b7f000000000000000000000000000000000000000000000000000000000000000034101561041a576040517f0178311000000000000000000000000000000000000000000000000000000000815260040160405180910390fd5b6000600181111561042e5761042d610f4a565b5b600160149054906101000a900460ff1660018111156104505761044f610f4a565b5b14610487576040517f732acd4a00000000000000000000000000000000000000000000000000000000815260040160405180910390fd5b6000339080600181540180825580915050600190039060005260206000200160009091909190916101000a81548173ffffffffffffffffffffffffffffffffffffffff021916908373ffffffffffffffffffffffffffffffffffffffff1602179055503373ffffffffffffffffffffffffffffffffffffffff167f1d64fb5ba9f2548c5b98468d58f25b87b9e866afee0122e92d9fe722bf85076c60405160405180910390a2565b6000610549604051806020016040528060008152506107ba565b509050806105b85747600080549050600160149054906101000a900460ff16600181111561057a57610579610f4a565b5b6040517fa5a3fe4b0000000000000000000000000000000000000000000000000000000081526004016105af939291906111fa565b60405180910390fd5b60018060146101000a81548160ff021916908360018111156105dd576105dc610f4a565b5b021790555060007f000000000000000000000000000000000000000000000000000000000000000073ffffffffffffffffffffffffffffffffffffffff16635d3b1d307f00000000000000000000000000000000000000000000000000000000000000007f000000000000000000000000000000000000000000000000000000000000000060037f00000000000000000000000000000000000000000000000000000000000000007f00000000000000000000000000000000000000000000000000000000000000006040518663ffffffff1660e01b81526004016106c69594939291906112a9565b6020604051808303816000875af11580156106e5573d6000803e3d6000fd5b505050506040513d601f19601f820116820180604052508101906107099190611311565b9050807febf56642252004c18a776f30d528e7a0ce8c5db14b6596fb6550f630c8a24c6c60405160405180910390a250505050565b6000600160009054906101000a900473ffffffffffffffffffffffffffffffffffffffff16905090565b60007f000000000000000000000000000000000000000000000000000000000000000063ffffffff16905090565b6000600361ffff16905090565b6000600160149054906101000a900460ff16905090565b600060606000600160149054906101000a900460ff1660018111156107e2576107e1610f4a565b5b600060018111156107f6576107f5610f4a565b5b14905060007f00000000000000000000000000000000000000000000000000000000000000006002544261082a919061136d565b1190506000806000805490501190506000804711905083801561084a5750825b80156108535750815b801561085c5750805b9550856040518060400160405280600381526020017f30583000000000000000000000000000000000000000000000000000000000008152509550955050505050915091565b60007f0000000000000000000000000000000000000000000000000000000000000000905090565b60008082815481106108df576108de6113a1565b5b9060005260206000200160009054906101000a900473ffffffffffffffffffffffffffffffffffffffff169050919050565b60007f0000000000000000000000000000000000000000000000000000000000000000905090565b60008080549050905090565b60008080549050826000815181106109605761095f6113a1565b5b602002602001015161097291906113ff565b90506000808281548110610989576109886113a1565b5b9060005260206000200160009054906101000a900473ffffffffffffffffffffffffffffffffffffffff16905080600160006101000a81548173ffffffffffffffffffffffffffffffffffffffff021916908373ffffffffffffffffffffffffffffffffffffffff1602179055506000600160146101000a81548160ff02191690836001811115610a1d57610a1c610f4a565b5b0217905550600067ffffffffffffffff811115610a3d57610a3c610c7d565b5b604051908082528060200260200182016040528015610a6b5781602001602082028036833780820191505090505b5060009080519060200190610a81929190610b76565b504260028190555060008173ffffffffffffffffffffffffffffffffffffffff1647604051610aaf90611461565b60006040518083038185875af1925050503d8060008114610aec576040519150601f19603f3d011682016040523d82523d6000602084013e610af1565b606091505b5050905080610b2c576040517fe649b36700000000000000000000000000000000000000000000000000000000815260040160405180910390fd5b8173ffffffffffffffffffffffffffffffffffffffff167f794919b0f484b8e90b1b817ac7f880f846fbd8a9813dee2a378e820db094e3d160405160405180910390a25050505050565b828054828255906000526020600020908101928215610bef579160200282015b82811115610bee5782518260006101000a81548173ffffffffffffffffffffffffffffffffffffffff021916908373ffffffffffffffffffffffffffffffffffffffff16021790555091602001919060010190610b96565b5b509050610bfc9190610c00565b5090565b5b80821115610c19576000816000905550600101610c01565b5090565b6000604051905090565b600080fd5b600080fd5b6000819050919050565b610c4481610c31565b8114610c4f57600080fd5b50565b600081359050610c6181610c3b565b92915050565b600080fd5b6000601f19601f8301169050919050565b7f4e487b7100000000000000000000000000000000000000000000000000000000600052604160045260246000fd5b610cb582610c6c565b810181811067ffffffffffffffff82111715610cd457610cd3610c7d565b5b80604052505050565b6000610ce7610c1d565b9050610cf38282610cac565b919050565b600067ffffffffffffffff821115610d1357610d12610c7d565b5b602082029050602081019050919050565b600080fd5b6000610d3c610d3784610cf8565b610cdd565b90508083825260208201905060208402830185811115610d5f57610d5e610d24565b5b835b81811015610d885780610d748882610c52565b845260208401935050602081019050610d61565b5050509392505050565b600082601f830112610da757610da6610c67565b5b8135610db7848260208601610d29565b91505092915050565b60008060408385031215610dd757610dd6610c27565b5b6000610de585828601610c52565b925050602083013567ffffffffffffffff811115610e0657610e05610c2c565b5b610e1285828601610d92565b9150509250929050565b610e2581610c31565b82525050565b6000602082019050610e406000830184610e1c565b92915050565b600080fd5b60008083601f840112610e6157610e60610c67565b5b8235905067ffffffffffffffff811115610e7e57610e7d610e46565b5b602083019150836001820283011115610e9a57610e99610d24565b5b9250929050565b60008060208385031215610eb857610eb7610c27565b5b600083013567ffffffffffffffff811115610ed657610ed5610c2c565b5b610ee285828601610e4b565b92509250509250929050565b600073ffffffffffffffffffffffffffffffffffffffff82169050919050565b6000610f1982610eee565b9050919050565b610f2981610f0e565b82525050565b6000602082019050610f446000830184610f20565b92915050565b7f4e487b7100000000000000000000000000000000000000000000000000000000600052602160045260246000fd5b60028110610f8a57610f89610f4a565b5b50565b6000819050610f9b82610f79565b919050565b6000610fab82610f8d565b9050919050565b610fbb81610fa0565b82525050565b6000602082019050610fd66000830184610fb2565b92915050565b600080fd5b600067ffffffffffffffff821115610ffc57610ffb610c7d565b5b61100582610c6c565b9050602081019050919050565b82818337600083830152505050565b600061103461102f84610fe1565b610cdd565b9050828152602081018484840111156110505761104f610fdc565b5b61105b848285611012565b509392505050565b600082601f83011261107857611077610c67565b5b8135611088848260208601611021565b91505092915050565b6000602082840312156110a7576110a6610c27565b5b600082013567ffffffffffffffff8111156110c5576110c4610c2c565b5b6110d184828501611063565b91505092915050565b60008115159050919050565b6110ef816110da565b82525050565b600081519050919050565b600082825260208201905092915050565b60005b8381101561112f578082015181840152602081019050611114565b60008484015250505050565b6000611146826110f5565b6111508185611100565b9350611160818560208601611111565b61116981610c6c565b840191505092915050565b600060408201905061118960008301856110e6565b818103602083015261119b818461113b565b90509392505050565b6000602082840312156111ba576111b9610c27565b5b60006111c884828501610c52565b91505092915050565b60006040820190506111e66000830185610f20565b6111f36020830184610f20565b9392505050565b600060608201905061120f6000830186610e1c565b61121c6020830185610e1c565b6112296040830184610e1c565b949350505050565b6000819050919050565b61124481611231565b82525050565b600067ffffffffffffffff82169050919050565b6112678161124a565b82525050565b600061ffff82169050919050565b6112848161126d565b82525050565b600063ffffffff82169050919050565b6112a38161128a565b82525050565b600060a0820190506112be600083018861123b565b6112cb602083018761125e565b6112d8604083018661127b565b6112e5606083018561129a565b6112f2608083018461129a565b9695505050505050565b60008151905061130b81610c3b565b92915050565b60006020828403121561132757611326610c27565b5b6000611335848285016112fc565b91505092915050565b7f4e487b7100000000000000000000000000000000000000000000000000000000600052601160045260246000fd5b600061137882610c31565b915061138383610c31565b925082820390508181111561139b5761139a61133e565b5b92915050565b7f4e487b7100000000000000000000000000000000000000000000000000000000600052603260045260246000fd5b7f4e487b7100000000000000000000000000000000000000000000000000000000600052601260045260246000fd5b600061140a82610c31565b915061141583610c31565b925082611425576114246113d0565b5b828206905092915050565b600081905092915050565b50565b600061144b600083611430565b91506114568261143b565b600082019050919050565b600061146c8261143e565b915081905091905056fea264697066735822122000d862a5fb8aa87e176aa3f11b59e9164b0a5dbb24fa1564b509c3d2fea65ac564736f6c63430008120033",
  "linkReferences": {},
  "deployedLinkReferences": {}
}