{
  "_format": "hh-sol-artifact-1",
  "contractName": "Lottery",
  "sourceName": "contracts/Lottery.sol",
  "abi": [
    {
      "inputs": [
        {
          "internalType": "address",
          "name": "vrfCoordinatorV2",
          "type": "address"
        },
        {
          "internalType": "uint256",
          "name": "entryFees",
          "type": "uint256"
        },
        {
          "internalType": "bytes32",
          "name": "gaslane",
          "type": "bytes32"
        },
        {
          "internalType": "uint64",
          "name": "subscriptionID",
          "type": "uint64"
        },
        {
          "internalType": "uint32",
          "name": "callbackgaslimit",
          "type": "uint32"
        },
        {
          "internalType": "uint256",
          "name": "s_interval",
          "type": "uint256"
        }
      ],
      "stateMutability": "nonpayable",
      "type": "constructor"
    },
    {
      "inputs": [],
      "name": "Lottery_NotEnoughEth",
      "type": "error"
    },
    {
      "inputs": [],
      "name": "Lottery_NotOpen",
      "type": "error"
    },
    {
      "inputs": [],
      "name": "Lottery_transactionFailed",
      "type": "error"
    },
    {
      "inputs": [
        {
          "internalType": "uint256",
          "name": "currentBalance",
          "type": "uint256"
        },
        {
          "internalType": "uint256",
          "name": "numPlayers",
          "type": "uint256"
        },
        {
          "internalType": "uint256",
          "name": "LotteryState",
          "type": "uint256"
        }
      ],
      "name": "Lottery_upkeepNotNeeded",
      "type": "error"
    },
    {
      "inputs": [
        {
          "internalType": "address",
          "name": "have",
          "type": "address"
        },
        {
          "internalType": "address",
          "name": "want",
          "type": "address"
        }
      ],
      "name": "OnlyCoordinatorCanFulfill",
      "type": "error"
    },
    {
      "anonymous": false,
      "inputs": [
        {
          "indexed": true,
          "internalType": "address",
          "name": "player",
          "type": "address"
        }
      ],
      "name": "LotteryEnter",
      "type": "event"
    },
    {
      "anonymous": false,
      "inputs": [
        {
          "indexed": true,
          "internalType": "uint256",
          "name": "requestId",
          "type": "uint256"
        }
      ],
      "name": "RequestedLotteryWinner",
      "type": "event"
    },
    {
      "anonymous": false,
      "inputs": [
        {
          "indexed": true,
          "internalType": "address",
          "name": "winner",
          "type": "address"
        }
      ],
      "name": "winnerPicked",
      "type": "event"
    },
    {
      "inputs": [
        {
          "internalType": "bytes",
          "name": "",
          "type": "bytes"
        }
      ],
      "name": "checkUpkeep",
      "outputs": [
        {
          "internalType": "bool",
          "name": "upkeepNeeded",
          "type": "bool"
        },
        {
          "internalType": "bytes",
          "name": "",
          "type": "bytes"
        }
      ],
      "stateMutability": "view",
      "type": "function"
    },
    {
      "inputs": [],
      "name": "enterInLottery",
      "outputs": [],
      "stateMutability": "payable",
      "type": "function"
    },
    {
      "inputs": [],
      "name": "getEntryFee",
      "outputs": [
        {
          "internalType": "uint256",
          "name": "",
          "type": "uint256"
        }
      ],
      "stateMutability": "view",
      "type": "function"
    },
    {
      "inputs": [],
      "name": "getLatestTimeStamp",
      "outputs": [
        {
          "internalType": "uint256",
          "name": "",
          "type": "uint256"
        }
      ],
      "stateMutability": "view",
      "type": "function"
    },
    {
      "inputs": [],
      "name": "getLotteryState",
      "outputs": [
        {
          "internalType": "enum Lottery.LotteryState",
          "name": "",
          "type": "uint8"
        }
      ],
      "stateMutability": "view",
      "type": "function"
    },
    {
      "inputs": [],
      "name": "getNumWords",
      "outputs": [
        {
          "internalType": "uint256",
          "name": "",
          "type": "uint256"
        }
      ],
      "stateMutability": "pure",
      "type": "function"
    },
    {
      "inputs": [],
      "name": "getNumberOfPlayers",
      "outputs": [
        {
          "internalType": "uint256",
          "name": "",
          "type": "uint256"
        }
      ],
      "stateMutability": "view",
      "type": "function"
    },
    {
      "inputs": [
        {
          "internalType": "uint256",
          "name": "index",
          "type": "uint256"
        }
      ],
      "name": "getPlayer",
      "outputs": [
        {
          "internalType": "address",
          "name": "",
          "type": "address"
        }
      ],
      "stateMutability": "view",
      "type": "function"
    },
    {
      "inputs": [],
      "name": "getRecentWinner",
      "outputs": [
        {
          "internalType": "address",
          "name": "",
          "type": "address"
        }
      ],
      "stateMutability": "view",
      "type": "function"
    },
    {
      "inputs": [],
      "name": "getRequestConfirmations",
      "outputs": [
        {
          "internalType": "uint256",
          "name": "",
          "type": "uint256"
        }
      ],
      "stateMutability": "pure",
      "type": "function"
    },
    {
      "inputs": [
        {
          "internalType": "bytes",
          "name": "",
          "type": "bytes"
        }
      ],
      "name": "performUpkeep",
      "outputs": [],
      "stateMutability": "nonpayable",
      "type": "function"
    },
    {
      "inputs": [
        {
          "internalType": "uint256",
          "name": "requestId",
          "type": "uint256"
        },
        {
          "internalType": "uint256[]",
          "name": "randomWords",
          "type": "uint256[]"
        }
      ],
      "name": "rawFulfillRandomWords",
      "outputs": [],
      "stateMutability": "nonpayable",
      "type": "function"
    }
  ],
  "bytecode": "0x610180604052600163ffffffff166101409063ffffffff168152503480156200002757600080fd5b506040516200182d3803806200182d83398181016040528101906200004d9190620002a9565b858073ffffffffffffffffffffffffffffffffffffffff1660808173ffffffffffffffffffffffffffffffffffffffff1681525050508460a081815250508573ffffffffffffffffffffffffffffffffffffffff1660c08173ffffffffffffffffffffffffffffffffffffffff16815250508360e081815250508267ffffffffffffffff166101008167ffffffffffffffff16815250508163ffffffff166101208163ffffffff16815250506000600160146101000a81548160ff0219169083600181111562000122576200012162000345565b5b02179055504260028190555080610160818152505050505050505062000374565b600080fd5b600073ffffffffffffffffffffffffffffffffffffffff82169050919050565b6000620001758262000148565b9050919050565b620001878162000168565b81146200019357600080fd5b50565b600081519050620001a7816200017c565b92915050565b6000819050919050565b620001c281620001ad565b8114620001ce57600080fd5b50565b600081519050620001e281620001b7565b92915050565b6000819050919050565b620001fd81620001e8565b81146200020957600080fd5b50565b6000815190506200021d81620001f2565b92915050565b600067ffffffffffffffff82169050919050565b620002428162000223565b81146200024e57600080fd5b50565b600081519050620002628162000237565b92915050565b600063ffffffff82169050919050565b620002838162000268565b81146200028f57600080fd5b50565b600081519050620002a38162000278565b92915050565b60008060008060008060c08789031215620002c957620002c862000143565b5b6000620002d989828a0162000196565b9650506020620002ec89828a01620001d1565b9550506040620002ff89828a016200020c565b94505060606200031289828a0162000251565b93505060806200032589828a0162000292565b92505060a06200033889828a01620001d1565b9150509295509295509295565b7f4e487b7100000000000000000000000000000000000000000000000000000000600052602160045260246000fd5b60805160a05160c05160e0516101005161012051610140516101605161143e620003ef60003960006107b7015260008181610641015261072601526000610620015260006105fd015260006105dc015260006105a001526000818161037c01526108a70152600081816102b20152610306015261143e6000f3fe6080604052600436106100a75760003560e01c80635f1b0fd8116100645780635f1b0fd8146101895780636b68c03c146101b45780636e04ff0d146101df578063e55ae4e81461021d578063e586a4f01461025a578063fd6673f514610285576100a7565b80631fe543e3146100ac578063320229eb146100d557806333592fef146101005780634585e33b1461010a578063473f1ddc1461013357806353a2c19a1461015e575b600080fd5b3480156100b857600080fd5b506100d360048036038101906100ce9190610d52565b6102b0565b005b3480156100e157600080fd5b506100ea610370565b6040516100f79190610dbd565b60405180910390f35b61010861037a565b005b34801561011657600080fd5b50610131600480360381019061012c9190610e33565b6104e9565b005b34801561013f57600080fd5b506101486106f8565b6040516101559190610ec1565b60405180910390f35b34801561016a57600080fd5b50610173610722565b6040516101809190610dbd565b60405180910390f35b34801561019557600080fd5b5061019e610750565b6040516101ab9190610dbd565b60405180910390f35b3480156101c057600080fd5b506101c961075d565b6040516101d69190610f53565b60405180910390f35b3480156101eb57600080fd5b5061020660048036038101906102019190611023565b610774565b604051610214929190611106565b60405180910390f35b34801561022957600080fd5b50610244600480360381019061023f9190611136565b61085c565b6040516102519190610ec1565b60405180910390f35b34801561026657600080fd5b5061026f6108a3565b60405161027c9190610dbd565b60405180910390f35b34801561029157600080fd5b5061029a6108cb565b6040516102a79190610dbd565b60405180910390f35b7f000000000000000000000000000000000000000000000000000000000000000073ffffffffffffffffffffffffffffffffffffffff163373ffffffffffffffffffffffffffffffffffffffff161461036257337f00000000000000000000000000000000000000000000000000000000000000006040517f1cf993f4000000000000000000000000000000000000000000000000000000008152600401610359929190611163565b60405180910390fd5b61036c82826108d7565b5050565b6000600254905090565b7f00000000000000000000000000000000000000000000000000000000000000003410156103d4576040517f0178311000000000000000000000000000000000000000000000000000000000815260040160405180910390fd5b600060018111156103e8576103e7610edc565b5b600160149054906101000a900460ff16600181111561040a57610409610edc565b5b14610441576040517f732acd4a00000000000000000000000000000000000000000000000000000000815260040160405180910390fd5b6000339080600181540180825580915050600190039060005260206000200160009091909190916101000a81548173ffffffffffffffffffffffffffffffffffffffff021916908373ffffffffffffffffffffffffffffffffffffffff1602179055503373ffffffffffffffffffffffffffffffffffffffff167f1d64fb5ba9f2548c5b98468d58f25b87b9e866afee0122e92d9fe722bf85076c60405160405180910390a2565b600061050360405180602001604052806000815250610774565b509050806105725747600080549050600160149054906101000a900460ff16600181111561053457610533610edc565b5b6040517fa5a3fe4b0000000000000000000000000000000000000000000000000000000081526004016105699392919061118c565b60405180910390fd5b60018060146101000a81548160ff0219169083600181111561059757610596610edc565b5b021790555060007f000000000000000000000000000000000000000000000000000000000000000073ffffffffffffffffffffffffffffffffffffffff16635d3b1d307f00000000000000000000000000000000000000000000000000000000000000007f000000000000000000000000000000000000000000000000000000000000000060037f00000000000000000000000000000000000000000000000000000000000000007f00000000000000000000000000000000000000000000000000000000000000006040518663ffffffff1660e01b815260040161068095949392919061123b565b6020604051808303816000875af115801561069f573d6000803e3d6000fd5b505050506040513d601f19601f820116820180604052508101906106c391906112a3565b9050807febf56642252004c18a776f30d528e7a0ce8c5db14b6596fb6550f630c8a24c6c60405160405180910390a250505050565b6000600160009054906101000a900473ffffffffffffffffffffffffffffffffffffffff16905090565b60007f000000000000000000000000000000000000000000000000000000000000000063ffffffff16905090565b6000600361ffff16905090565b6000600160149054906101000a900460ff16905090565b600060606000600160149054906101000a900460ff16600181111561079c5761079b610edc565b5b600060018111156107b0576107af610edc565b5b14905060007f0000000000000000000000000000000000000000000000000000000000000000600254426107e491906112ff565b119050600080600080549050119050600080471190508380156108045750825b801561080d5750815b80156108165750805b9550856040518060400160405280600381526020017f30583000000000000000000000000000000000000000000000000000000000008152509550955050505050915091565b600080828154811061087157610870611333565b5b9060005260206000200160009054906101000a900473ffffffffffffffffffffffffffffffffffffffff169050919050565b60007f0000000000000000000000000000000000000000000000000000000000000000905090565b60008080549050905090565b60008080549050826000815181106108f2576108f1611333565b5b60200260200101516109049190611391565b9050600080828154811061091b5761091a611333565b5b9060005260206000200160009054906101000a900473ffffffffffffffffffffffffffffffffffffffff16905080600160006101000a81548173ffffffffffffffffffffffffffffffffffffffff021916908373ffffffffffffffffffffffffffffffffffffffff1602179055506000600160146101000a81548160ff021916908360018111156109af576109ae610edc565b5b0217905550600067ffffffffffffffff8111156109cf576109ce610c0f565b5b6040519080825280602002602001820160405280156109fd5781602001602082028036833780820191505090505b5060009080519060200190610a13929190610b08565b504260028190555060008173ffffffffffffffffffffffffffffffffffffffff1647604051610a41906113f3565b60006040518083038185875af1925050503d8060008114610a7e576040519150601f19603f3d011682016040523d82523d6000602084013e610a83565b606091505b5050905080610abe576040517fe649b36700000000000000000000000000000000000000000000000000000000815260040160405180910390fd5b8173ffffffffffffffffffffffffffffffffffffffff167f794919b0f484b8e90b1b817ac7f880f846fbd8a9813dee2a378e820db094e3d160405160405180910390a25050505050565b828054828255906000526020600020908101928215610b81579160200282015b82811115610b805782518260006101000a81548173ffffffffffffffffffffffffffffffffffffffff021916908373ffffffffffffffffffffffffffffffffffffffff16021790555091602001919060010190610b28565b5b509050610b8e9190610b92565b5090565b5b80821115610bab576000816000905550600101610b93565b5090565b6000604051905090565b600080fd5b600080fd5b6000819050919050565b610bd681610bc3565b8114610be157600080fd5b50565b600081359050610bf381610bcd565b92915050565b600080fd5b6000601f19601f8301169050919050565b7f4e487b7100000000000000000000000000000000000000000000000000000000600052604160045260246000fd5b610c4782610bfe565b810181811067ffffffffffffffff82111715610c6657610c65610c0f565b5b80604052505050565b6000610c79610baf565b9050610c858282610c3e565b919050565b600067ffffffffffffffff821115610ca557610ca4610c0f565b5b602082029050602081019050919050565b600080fd5b6000610cce610cc984610c8a565b610c6f565b90508083825260208201905060208402830185811115610cf157610cf0610cb6565b5b835b81811015610d1a5780610d068882610be4565b845260208401935050602081019050610cf3565b5050509392505050565b600082601f830112610d3957610d38610bf9565b5b8135610d49848260208601610cbb565b91505092915050565b60008060408385031215610d6957610d68610bb9565b5b6000610d7785828601610be4565b925050602083013567ffffffffffffffff811115610d9857610d97610bbe565b5b610da485828601610d24565b9150509250929050565b610db781610bc3565b82525050565b6000602082019050610dd26000830184610dae565b92915050565b600080fd5b60008083601f840112610df357610df2610bf9565b5b8235905067ffffffffffffffff811115610e1057610e0f610dd8565b5b602083019150836001820283011115610e2c57610e2b610cb6565b5b9250929050565b60008060208385031215610e4a57610e49610bb9565b5b600083013567ffffffffffffffff811115610e6857610e67610bbe565b5b610e7485828601610ddd565b92509250509250929050565b600073ffffffffffffffffffffffffffffffffffffffff82169050919050565b6000610eab82610e80565b9050919050565b610ebb81610ea0565b82525050565b6000602082019050610ed66000830184610eb2565b92915050565b7f4e487b7100000000000000000000000000000000000000000000000000000000600052602160045260246000fd5b60028110610f1c57610f1b610edc565b5b50565b6000819050610f2d82610f0b565b919050565b6000610f3d82610f1f565b9050919050565b610f4d81610f32565b82525050565b6000602082019050610f686000830184610f44565b92915050565b600080fd5b600067ffffffffffffffff821115610f8e57610f8d610c0f565b5b610f9782610bfe565b9050602081019050919050565b82818337600083830152505050565b6000610fc6610fc184610f73565b610c6f565b905082815260208101848484011115610fe257610fe1610f6e565b5b610fed848285610fa4565b509392505050565b600082601f83011261100a57611009610bf9565b5b813561101a848260208601610fb3565b91505092915050565b60006020828403121561103957611038610bb9565b5b600082013567ffffffffffffffff81111561105757611056610bbe565b5b61106384828501610ff5565b91505092915050565b60008115159050919050565b6110818161106c565b82525050565b600081519050919050565b600082825260208201905092915050565b60005b838110156110c15780820151818401526020810190506110a6565b60008484015250505050565b60006110d882611087565b6110e28185611092565b93506110f28185602086016110a3565b6110fb81610bfe565b840191505092915050565b600060408201905061111b6000830185611078565b818103602083015261112d81846110cd565b90509392505050565b60006020828403121561114c5761114b610bb9565b5b600061115a84828501610be4565b91505092915050565b60006040820190506111786000830185610eb2565b6111856020830184610eb2565b9392505050565b60006060820190506111a16000830186610dae565b6111ae6020830185610dae565b6111bb6040830184610dae565b949350505050565b6000819050919050565b6111d6816111c3565b82525050565b600067ffffffffffffffff82169050919050565b6111f9816111dc565b82525050565b600061ffff82169050919050565b611216816111ff565b82525050565b600063ffffffff82169050919050565b6112358161121c565b82525050565b600060a08201905061125060008301886111cd565b61125d60208301876111f0565b61126a604083018661120d565b611277606083018561122c565b611284608083018461122c565b9695505050505050565b60008151905061129d81610bcd565b92915050565b6000602082840312156112b9576112b8610bb9565b5b60006112c78482850161128e565b91505092915050565b7f4e487b7100000000000000000000000000000000000000000000000000000000600052601160045260246000fd5b600061130a82610bc3565b915061131583610bc3565b925082820390508181111561132d5761132c6112d0565b5b92915050565b7f4e487b7100000000000000000000000000000000000000000000000000000000600052603260045260246000fd5b7f4e487b7100000000000000000000000000000000000000000000000000000000600052601260045260246000fd5b600061139c82610bc3565b91506113a783610bc3565b9250826113b7576113b6611362565b5b828206905092915050565b600081905092915050565b50565b60006113dd6000836113c2565b91506113e8826113cd565b600082019050919050565b60006113fe826113d0565b915081905091905056fea264697066735822122002d08480f8d04b98f3cb94fdeaaf9fd6dff7dbf7ec15491767e2720a4d88e82064736f6c63430008120033",
  "linkReferences": {},
  "deployedLinkReferences": {}
}